{
  "_format": "hh-sol-artifact-1",
  "contractName": "Voting",
  "sourceName": "contracts/Voting.sol",
  "abi": [
    {
      "inputs": [
        {
          "internalType": "string[]",
          "name": "_candiNames",
          "type": "string[]"
        },
        {
          "internalType": "uint256",
          "name": "_durationMinutes",
          "type": "uint256"
        }
      ],
      "stateMutability": "nonpayable",
      "type": "constructor"
    },
    {
      "inputs": [
        {
          "internalType": "string",
          "name": "_name",
          "type": "string"
        }
      ],
      "name": "addCandidate",
      "outputs": [],
      "stateMutability": "nonpayable",
      "type": "function"
    },
    {
      "inputs": [
        {
          "internalType": "uint256",
          "name": "",
          "type": "uint256"
        }
      ],
      "name": "candidates",
      "outputs": [
        {
          "internalType": "string",
          "name": "name",
          "type": "string"
        },
        {
          "internalType": "uint256",
          "name": "voteCount",
          "type": "uint256"
        }
      ],
      "stateMutability": "view",
      "type": "function"
    },
    {
      "inputs": [],
      "name": "getAllVotesOfCandidates",
      "outputs": [
        {
          "components": [
            {
              "internalType": "string",
              "name": "name",
              "type": "string"
            },
            {
              "internalType": "uint256",
              "name": "voteCount",
              "type": "uint256"
            }
          ],
          "internalType": "struct Voting.Candidate[]",
          "name": "",
          "type": "tuple[]"
        }
      ],
      "stateMutability": "view",
      "type": "function"
    },
    {
      "inputs": [],
      "name": "getReminingTime",
      "outputs": [
        {
          "internalType": "uint256",
          "name": "",
          "type": "uint256"
        }
      ],
      "stateMutability": "view",
      "type": "function"
    },
    {
      "inputs": [],
      "name": "getVotingStatus",
      "outputs": [
        {
          "internalType": "bool",
          "name": "",
          "type": "bool"
        }
      ],
      "stateMutability": "view",
      "type": "function"
    },
    {
      "inputs": [],
      "name": "message",
      "outputs": [
        {
          "internalType": "string",
          "name": "",
          "type": "string"
        }
      ],
      "stateMutability": "pure",
      "type": "function"
    },
    {
      "inputs": [],
      "name": "owner",
      "outputs": [
        {
          "internalType": "address",
          "name": "",
          "type": "address"
        }
      ],
      "stateMutability": "view",
      "type": "function"
    },
    {
      "inputs": [
        {
          "internalType": "uint256",
          "name": "_candidateIndex",
          "type": "uint256"
        }
      ],
      "name": "vote",
      "outputs": [],
      "stateMutability": "nonpayable",
      "type": "function"
    },
    {
      "inputs": [
        {
          "internalType": "address",
          "name": "",
          "type": "address"
        }
      ],
      "name": "voters",
      "outputs": [
        {
          "internalType": "bool",
          "name": "",
          "type": "bool"
        }
      ],
      "stateMutability": "view",
      "type": "function"
    },
    {
      "inputs": [],
      "name": "votingEnd",
      "outputs": [
        {
          "internalType": "uint256",
          "name": "",
          "type": "uint256"
        }
      ],
      "stateMutability": "view",
      "type": "function"
    },
    {
      "inputs": [],
      "name": "votingStart",
      "outputs": [
        {
          "internalType": "uint256",
          "name": "",
          "type": "uint256"
        }
      ],
      "stateMutability": "view",
      "type": "function"
    }
  ],
  "bytecode": "0x60806040523480156200001157600080fd5b5060405162001b0338038062001b03833981810160405281019062000037919062000411565b60005b8251811015620000d4576000604051806040016040528085848151811062000067576200006662000477565b5b60200260200101518152602001600081525090806001815401808255809150506001900390600052602060002090600202016000909190919091506000820151816000019081620000b99190620006e7565b5060208201518160010155505080806001019150506200003a565b5033600160006101000a81548173ffffffffffffffffffffffffffffffffffffffff021916908373ffffffffffffffffffffffffffffffffffffffff16021790555042600381905550603c816200012c9190620007fd565b4262000139919062000848565b600481905550505062000883565b6000604051905090565b600080fd5b600080fd5b600080fd5b6000601f19601f8301169050919050565b7f4e487b7100000000000000000000000000000000000000000000000000000000600052604160045260246000fd5b620001ab8262000160565b810181811067ffffffffffffffff82111715620001cd57620001cc62000171565b5b80604052505050565b6000620001e262000147565b9050620001f08282620001a0565b919050565b600067ffffffffffffffff82111562000213576200021262000171565b5b602082029050602081019050919050565b600080fd5b600080fd5b600067ffffffffffffffff8211156200024c576200024b62000171565b5b620002578262000160565b9050602081019050919050565b60005b838110156200028457808201518184015260208101905062000267565b60008484015250505050565b6000620002a7620002a1846200022e565b620001d6565b905082815260208101848484011115620002c657620002c562000229565b5b620002d384828562000264565b509392505050565b600082601f830112620002f357620002f26200015b565b5b81516200030584826020860162000290565b91505092915050565b6000620003256200031f84620001f5565b620001d6565b905080838252602082019050602084028301858111156200034b576200034a62000224565b5b835b818110156200039957805167ffffffffffffffff8111156200037457620003736200015b565b5b808601620003838982620002db565b855260208501945050506020810190506200034d565b5050509392505050565b600082601f830112620003bb57620003ba6200015b565b5b8151620003cd8482602086016200030e565b91505092915050565b6000819050919050565b620003eb81620003d6565b8114620003f757600080fd5b50565b6000815190506200040b81620003e0565b92915050565b600080604083850312156200042b576200042a62000151565b5b600083015167ffffffffffffffff8111156200044c576200044b62000156565b5b6200045a85828601620003a3565b92505060206200046d85828601620003fa565b9150509250929050565b7f4e487b7100000000000000000000000000000000000000000000000000000000600052603260045260246000fd5b600081519050919050565b7f4e487b7100000000000000000000000000000000000000000000000000000000600052602260045260246000fd5b60006002820490506001821680620004f957607f821691505b6020821081036200050f576200050e620004b1565b5b50919050565b60008190508160005260206000209050919050565b60006020601f8301049050919050565b600082821b905092915050565b600060088302620005797fffffffffffffffffffffffffffffffffffffffffffffffffffffffffffffffff826200053a565b6200058586836200053a565b95508019841693508086168417925050509392505050565b6000819050919050565b6000620005c8620005c2620005bc84620003d6565b6200059d565b620003d6565b9050919050565b6000819050919050565b620005e483620005a7565b620005fc620005f382620005cf565b84845462000547565b825550505050565b600090565b6200061362000604565b62000620818484620005d9565b505050565b5b8181101562000648576200063c60008262000609565b60018101905062000626565b5050565b601f8211156200069757620006618162000515565b6200066c846200052a565b810160208510156200067c578190505b620006946200068b856200052a565b83018262000625565b50505b505050565b600082821c905092915050565b6000620006bc600019846008026200069c565b1980831691505092915050565b6000620006d78383620006a9565b9150826002028217905092915050565b620006f282620004a6565b67ffffffffffffffff8111156200070e576200070d62000171565b5b6200071a8254620004e0565b620007278282856200064c565b600060209050601f8311600181146200075f57600084156200074a578287015190505b620007568582620006c9565b865550620007c6565b601f1984166200076f8662000515565b60005b82811015620007995784890151825560018201915060208501945060208101905062000772565b86831015620007b95784890151620007b5601f891682620006a9565b8355505b6001600288020188555050505b505050505050565b7f4e487b7100000000000000000000000000000000000000000000000000000000600052601160045260246000fd5b60006200080a82620003d6565b91506200081783620003d6565b92508282026200082781620003d6565b91508282048414831517620008415762000840620007ce565b5b5092915050565b60006200085582620003d6565b91506200086283620003d6565b92508282019050808211156200087d576200087c620007ce565b5b92915050565b61127080620008936000396000f3fe608060405234801561001057600080fd5b50600436106100a95760003560e01c806385a386351161007157806385a38635146101535780638da5cb5b1461017157806390a9ab901461018f578063a3ec138d146101ad578063e21f37ce146101dd578063ef6113a2146101fb576100a9565b80630121b93f146100ae578063101158af146100ca5780633477ee2e146100e8578063462e91ec14610119578063581c281c14610135575b600080fd5b6100c860048036038101906100c39190610790565b610219565b005b6100d2610383565b6040516100df91906107cc565b60405180910390f35b61010260048036038101906100fd9190610790565b610389565b604051610110929190610877565b60405180910390f35b610133600480360381019061012e91906109dc565b610445565b005b61013d61053b565b60405161014a9190610a40565b60405180910390f35b61015b610555565b60405161016891906107cc565b60405180910390f35b61017961055b565b6040516101869190610a9c565b60405180910390f35b610197610581565b6040516101a49190610c0f565b60405180910390f35b6101c760048036038101906101c29190610c5d565b61067c565b6040516101d49190610a40565b60405180910390f35b6101e561069c565b6040516101f29190610c8a565b60405180910390f35b6102036106d9565b60405161021091906107cc565b60405180910390f35b600260003373ffffffffffffffffffffffffffffffffffffffff1673ffffffffffffffffffffffffffffffffffffffff16815260200190815260200160002060009054906101000a900460ff16156102a6576040517f08c379a000000000000000000000000000000000000000000000000000000000815260040161029d90610cf8565b60405180910390fd5b60008054905081106102ed576040517f08c379a00000000000000000000000000000000000000000000000000000000081526004016102e490610d64565b60405180910390fd5b6000818154811061030157610300610d84565b5b9060005260206000209060020201600101600081548092919061032390610de2565b91905055506001600260003373ffffffffffffffffffffffffffffffffffffffff1673ffffffffffffffffffffffffffffffffffffffff16815260200190815260200160002060006101000a81548160ff02191690831515021790555050565b60035481565b6000818154811061039957600080fd5b90600052602060002090600202016000915090508060000180546103bc90610e59565b80601f01602080910402602001604051908101604052809291908181526020018280546103e890610e59565b80156104355780601f1061040a57610100808354040283529160200191610435565b820191906000526020600020905b81548152906001019060200180831161041857829003601f168201915b5050505050908060010154905082565b600160009054906101000a900473ffffffffffffffffffffffffffffffffffffffff1673ffffffffffffffffffffffffffffffffffffffff163373ffffffffffffffffffffffffffffffffffffffff16146104d5576040517f08c379a00000000000000000000000000000000000000000000000000000000081526004016104cc90610efc565b60405180910390fd5b6000604051806040016040528083815260200160008152509080600181540180825580915050600190039060005260206000209060020201600090919091909150600082015181600001908161052b91906110c8565b5060208201518160010155505050565b60006003544210158015610550575060045442105b905090565b60045481565b600160009054906101000a900473ffffffffffffffffffffffffffffffffffffffff1681565b60606000805480602002602001604051908101604052809291908181526020016000905b8282101561067357838290600052602060002090600202016040518060400160405290816000820180546105d890610e59565b80601f016020809104026020016040519081016040528092919081815260200182805461060490610e59565b80156106515780601f1061062657610100808354040283529160200191610651565b820191906000526020600020905b81548152906001019060200180831161063457829003601f168201915b50505050508152602001600182015481525050815260200190600101906105a5565b50505050905090565b60026020528060005260406000206000915054906101000a900460ff1681565b60606040518060400160405280600b81526020017f74657373732067626c6f6b000000000000000000000000000000000000000000815250905090565b6000600354421015610720576040517f08c379a0000000000000000000000000000000000000000000000000000000008152600401610717906111e6565b60405180910390fd5b60045442106107325760009050610743565b426004546107409190611206565b90505b90565b6000604051905090565b600080fd5b600080fd5b6000819050919050565b61076d8161075a565b811461077857600080fd5b50565b60008135905061078a81610764565b92915050565b6000602082840312156107a6576107a5610750565b5b60006107b48482850161077b565b91505092915050565b6107c68161075a565b82525050565b60006020820190506107e160008301846107bd565b92915050565b600081519050919050565b600082825260208201905092915050565b60005b83811015610821578082015181840152602081019050610806565b60008484015250505050565b6000601f19601f8301169050919050565b6000610849826107e7565b61085381856107f2565b9350610863818560208601610803565b61086c8161082d565b840191505092915050565b60006040820190508181036000830152610891818561083e565b90506108a060208301846107bd565b9392505050565b600080fd5b600080fd5b7f4e487b7100000000000000000000000000000000000000000000000000000000600052604160045260246000fd5b6108e98261082d565b810181811067ffffffffffffffff82111715610908576109076108b1565b5b80604052505050565b600061091b610746565b905061092782826108e0565b919050565b600067ffffffffffffffff821115610947576109466108b1565b5b6109508261082d565b9050602081019050919050565b82818337600083830152505050565b600061097f61097a8461092c565b610911565b90508281526020810184848401111561099b5761099a6108ac565b5b6109a684828561095d565b509392505050565b600082601f8301126109c3576109c26108a7565b5b81356109d384826020860161096c565b91505092915050565b6000602082840312156109f2576109f1610750565b5b600082013567ffffffffffffffff811115610a1057610a0f610755565b5b610a1c848285016109ae565b91505092915050565b60008115159050919050565b610a3a81610a25565b82525050565b6000602082019050610a556000830184610a31565b92915050565b600073ffffffffffffffffffffffffffffffffffffffff82169050919050565b6000610a8682610a5b565b9050919050565b610a9681610a7b565b82525050565b6000602082019050610ab16000830184610a8d565b92915050565b600081519050919050565b600082825260208201905092915050565b6000819050602082019050919050565b600082825260208201905092915050565b6000610aff826107e7565b610b098185610ae3565b9350610b19818560208601610803565b610b228161082d565b840191505092915050565b610b368161075a565b82525050565b60006040830160008301518482036000860152610b598282610af4565b9150506020830151610b6e6020860182610b2d565b508091505092915050565b6000610b858383610b3c565b905092915050565b6000602082019050919050565b6000610ba582610ab7565b610baf8185610ac2565b935083602082028501610bc185610ad3565b8060005b85811015610bfd5784840389528151610bde8582610b79565b9450610be983610b8d565b925060208a01995050600181019050610bc5565b50829750879550505050505092915050565b60006020820190508181036000830152610c298184610b9a565b905092915050565b610c3a81610a7b565b8114610c4557600080fd5b50565b600081359050610c5781610c31565b92915050565b600060208284031215610c7357610c72610750565b5b6000610c8184828501610c48565b91505092915050565b60006020820190508181036000830152610ca4818461083e565b905092915050565b7f6b616d7520737564616820766f74650000000000000000000000000000000000600082015250565b6000610ce2600f836107f2565b9150610ced82610cac565b602082019050919050565b60006020820190508181036000830152610d1181610cd5565b9050919050565b7f6b616e646964617420746964616b206164610000000000000000000000000000600082015250565b6000610d4e6012836107f2565b9150610d5982610d18565b602082019050919050565b60006020820190508181036000830152610d7d81610d41565b9050919050565b7f4e487b7100000000000000000000000000000000000000000000000000000000600052603260045260246000fd5b7f4e487b7100000000000000000000000000000000000000000000000000000000600052601160045260246000fd5b6000610ded8261075a565b91507fffffffffffffffffffffffffffffffffffffffffffffffffffffffffffffffff8203610e1f57610e1e610db3565b5b600182019050919050565b7f4e487b7100000000000000000000000000000000000000000000000000000000600052602260045260246000fd5b60006002820490506001821680610e7157607f821691505b602082108103610e8457610e83610e2a565b5b50919050565b7f68616e7961206f776e65722079616e672062697361206d656d6275617420636160008201527f6e64696461740000000000000000000000000000000000000000000000000000602082015250565b6000610ee66026836107f2565b9150610ef182610e8a565b604082019050919050565b60006020820190508181036000830152610f1581610ed9565b9050919050565b60008190508160005260206000209050919050565b60006020601f8301049050919050565b600082821b905092915050565b600060088302610f7e7fffffffffffffffffffffffffffffffffffffffffffffffffffffffffffffffff82610f41565b610f888683610f41565b95508019841693508086168417925050509392505050565b6000819050919050565b6000610fc5610fc0610fbb8461075a565b610fa0565b61075a565b9050919050565b6000819050919050565b610fdf83610faa565b610ff3610feb82610fcc565b848454610f4e565b825550505050565b600090565b611008610ffb565b611013818484610fd6565b505050565b5b818110156110375761102c600082611000565b600181019050611019565b5050565b601f82111561107c5761104d81610f1c565b61105684610f31565b81016020851015611065578190505b61107961107185610f31565b830182611018565b50505b505050565b600082821c905092915050565b600061109f60001984600802611081565b1980831691505092915050565b60006110b8838361108e565b9150826002028217905092915050565b6110d1826107e7565b67ffffffffffffffff8111156110ea576110e96108b1565b5b6110f48254610e59565b6110ff82828561103b565b600060209050601f8311600181146111325760008415611120578287015190505b61112a85826110ac565b865550611192565b601f19841661114086610f1c565b60005b8281101561116857848901518255600182019150602085019450602081019050611143565b868310156111855784890151611181601f89168261108e565b8355505b6001600288020188555050505b505050505050565b7f766f74696e672062656c756d206469206d756c61690000000000000000000000600082015250565b60006111d06015836107f2565b91506111db8261119a565b602082019050919050565b600060208201905081810360008301526111ff816111c3565b9050919050565b60006112118261075a565b915061121c8361075a565b925082820390508181111561123457611233610db3565b5b9291505056fea2646970667358221220fd2c88f192bfcef2ba986fec76118f377a6821cf14e947adf838d22e9cd76def64736f6c63430008180033",
  "linkReferences": {},
  "deployedLinkReferences": {}
}